:100000000C945E000C9486000C9486000C94860080
:100010000C9486000C9486000C9486000C94860048
:100020000C9486000C9486000C9486000C94860038
:100030000C9486000C9486000C9486000C94860028
:100040000C94BE000C9486000C9486000C948600E0
:100050000C9486000C9486000C9486000C94860008
:100060000C9486000C94860000000007000201003A
:100070000003040600000000000000000102040864
:100080001020408001020408102001020408102002
:10009000040404040404040402020202020203032E
:1000A0000303030300000000250028002B000000CC
:1000B0000000240027002A00B100BA0011241FBE4E
:1000C000CFEFD8E0DEBFCDBF11E0A0E0B1E0EEE2BF
:1000D000FBE002C005900D92A830B107D9F721E0EE
:1000E000A8E0B1E001C01D92AA32B207E1F710E02A
:1000F000CAEBD0E004C02297FE010E948605C83BEF
:10010000D107C9F70E948C010C947A050C94000069
:1001100088E091E00C94AD01CF93DF93C0E0D0E094
:1001200040E066E980E00E94B2039B01AC01BE01A1
:1001300088E091E00E944D0388E091E00E94310246
:100140006091000170910101882777FD8095982FBB
:100150000E942B012196C831D10511F7DF91CF9173
:10016000089522E530E046E068E170E088E091E043
:100170000C94250388E091E00C9499011F920F9252
:100180000FB60F9211242F933F938F939F93AF93AA
:10019000BF9380911E0190911F01A0912001B09109
:1001A000210130911D0123E0230F2D3720F401960A
:1001B000A11DB11D05C026E8230F0296A11DB11D8A
:1001C00020931D0180931E0190931F01A093200195
:1001D000B09321018091220190912301A0912401EB
:1001E000B09125010196A11DB11D8093220190932C
:1001F0002301A0932401B0932501BF91AF919F915A
:100200008F913F912F910F900FBE0F901F901895D7
:100210003FB7F8948091220190912301A09124018D
:10022000B091250126B5A89B05C02F3F19F0019676
:10023000A11DB11D3FBF6627782F892F9A2F620F0E
:10024000711D811D911D42E0660F771F881F991F48
:100250004A95D1F70895CF92DF92EF92FF92CF9314
:10026000DF936B017C010E940801EB01C114D104F2
:10027000E104F10479F00E9408016C1B7D0B683EDB
:100280007340A0F381E0C81AD108E108F108C85111
:10029000DC4FECCFDF91CF91FF90EF90DF90CF90CC
:1002A0000895789484B5826084BD84B5816084BDEE
:1002B00085B5826085BD85B5816085BDEEE6F0E0DF
:1002C000808181608083E1E8F0E01082808182603B
:1002D0008083808181608083E0E8F0E080818160BC
:1002E0008083E1EBF0E0808184608083E0EBF0E0EC
:1002F000808181608083EAE7F0E080818460808390
:100300008081826080838081816080838081806839
:1003100080831092C10008950E9451010E948800BC
:10032000C0E0D0E00E948C002097E1F30E94000022
:10033000F9CFCF93DF93EC0188859985009711F071
:100340000E94EB048E8187FD05C060E0DF91CF91B4
:100350000C94E403DF91CF910895CF93DF93EC01E8
:100360008E8187FD07C061E00E94E40360E08E811A
:100370000E941D0481E08983DF91CF910895EF925F
:10038000FF920F931F93CF93DF93EC017B0188853E
:100390009985009711F00E94EB049D858A8598133A
:1003A00003C083E090E002C084E090E08E9D800175
:1003B0008F9D100D9E9D100D11241D830C83C8016F
:1003C0000E94530499878887009741F0A80160E054
:1003D00070E00E947D05FB82EA8204C01D821C82BF
:1003E0001B821A82DF91CF911F910F91FF90EF90A6
:1003F0000895FC0121E095858285981320E0CB01CA
:1004000036E0969587953A95E1F7482F43704587F2
:10041000CB0154E0969587955A95E1F7382F3370C4
:100420003287CB01969587959695879583708387BC
:10043000862F8370848781E06F3F710511F008F08B
:1004400080E0808380859185892B51F091E0431372
:1004500090E0921729F062817381CF010C94BF0163
:100460000895CF92DF92EF92FF920F931F93CF9355
:10047000DF93CDB7DEB729970FB6F894DEBF0FBE76
:10048000CDBF8C01DC0118968D919C911997892B19
:1004900009F49AC00E940801F801C684D784E08854
:1004A000F1886C197D098E099F09623371058105F8
:1004B000910580F3F894848195819A838983A0853E
:1004C000B1857D01EFEFEE1AFE0A8C918987D80184
:1004D0009C9152960D90BC91A02DF801848999238E
:1004E00009F42EC09C91982B98879C918095892324
:1004F0008F838F818E8388E08D8358856F814985B6
:100500003D812E8189819A81F7015C9347FD252FDA
:100510003A952C93262F39F0441F00C000006C93AD
:10052000000000C0F2CF38E041916C9300000197C9
:1005300061F7F801B38BA28B49873D832E8338C0C6
:100540009C91982B98879C91809589238F838F818C
:100550008C8388E08B8358856F8149853B812C8112
:1005600089819A81F7015C9347FD252F00C000C067
:100570002C9300C000C000C000C000C06C930000FD
:10058000262F3A9541F0441F000000C000C000C073
:1005900000C000C0E8CF38E0419100C06C9300C0BB
:1005A000019709F7F801B38BA28B49873B832C8312
:1005B0009A83898378940E940801D8011E966D93CE
:1005C0007D938D939C93519729960FB6F894DEBF37
:1005D0000FBECDBFDF91CF911F910F91FF90EF9094
:1005E000DF90CF9008951F93CF93DF93EC01162FE8
:1005F0008981882331F08E8187FD03C060E00E94ED
:10060000E4031E838981882341F061E0812F0E94E9
:10061000E40360E0812F0E941D04812F90E0FC0123
:10062000E057FF4FE491F0E0EE0FFF1FEC55FF4F56
:10063000259134913B8B2A8BFC01E458FF4F849128
:100640008C8BDF91CF911F910895EF92FF920F93C2
:100650001F93CF93DF931F92CDB7DEB77C018B0141
:10066000FC01118217821186108616861786108A61
:10067000118AB90149830E94F901B801C7010E949A
:10068000BF014981642FC7010F90DF91CF911F9166
:100690000F91FF90EF900C94F302CF92DF92EF92C4
:1006A000FF920F931F93CF93DF93FC01828193817D
:1006B0006817790708F04DC0CA01AA27BB27182F71
:1006C000C32ED42EE52EFF24DC2DC22F078100235C
:1006D00061F0809FC0011124192FC09E6001112478
:1006E000DD2D209FC0011124C92FF5848285A085AE
:1006F000B185F81208C0CB01880F991F860F971F8C
:100700008A0F9B1F17C0CB01880F991F880F991F55
:100710008A0F9B1F452F552766277727DC01AF0DD2
:10072000B11D002329F0409F90011124232F01C007
:10073000242F2C932285DC01A20FB11D1C9323854D
:10074000DC01A20FB11DDC932485FC01E20FF11D39
:10075000C083DF91CF911F910F91FF90EF90DF90B9
:10076000CF900895962F50E060E070E0592B682BF1
:10077000CB01BA010895833081F028F4813099F0DB
:100780008230A1F008958630A9F08730B9F0843026
:10079000D1F4809180008F7D03C0809180008F779D
:1007A00080938000089584B58F7702C084B58F7DD3
:1007B00084BD08958091B0008F7703C08091B00010
:1007C0008F7D8093B0000895CF93DF9390E0FC017C
:1007D000E458FF4F2491FC01E057FF4F8491882398
:1007E00049F190E0880F991FFC01E255FF4FA59158
:1007F000B4918C559F4FFC01C591D4919FB7611165
:1008000008C0F8948C91209582238C938881822350
:100810000AC0623051F4F8948C91322F30958323C2
:100820008C938881822B888304C0F8948C91822BCE
:100830008C939FBFDF91CF9108950F931F93CF9318
:10084000DF931F92CDB7DEB7282F30E0F901E859CA
:10085000FF4F8491F901E458FF4F1491F901E057DB
:10086000FF4F04910023C9F0882321F069830E947F
:10087000BB036981E02FF0E0EE0FFF1FEC55FF4F47
:10088000A591B4919FB7F8948C91611103C0109514
:10089000812301C0812B8C939FBF0F90DF91CF915B
:1008A0001F910F910895CF93DF938230910510F43B
:1008B00082E090E0E0912801F091290120E030E011
:1008C000A0E0B0E0309739F14081518148175907D5
:1008D000B8F04817590771F482819381109729F075
:1008E00013969C938E9312972CC09093290180931A
:1008F000280127C02115310531F04217530718F0A0
:10090000A901DB0101C0EF019A01BD01DF010280F5
:10091000F381E02DD7CF21153105F9F0281B390BD4
:100920002430310580F48A819B816115710521F0A5
:10093000FB019383828304C0909329018093280153
:10094000FE01329644C0FE01E20FF31F81939193A2
:1009500022503109398328833AC0209126013091F1
:100960002701232B41F4209104013091050130939C
:1009700027012093260120910201309103012115C6
:10098000310541F42DB73EB7409106015091070162
:10099000241B350BE0912601F0912701E217F307A4
:1009A000A0F42E1B3F0B2817390778F0AC014E5FDF
:1009B0005F4F2417350748F04E0F5F1F50932701F4
:1009C000409326018193919302C0E0E0F0E0CF01D3
:1009D000DF91CF910895CF93DF93009709F487C0FB
:1009E000FC01329713821282C0912801D091290113
:1009F000209781F420813181280F391F80912601B1
:100A0000909127018217930779F5F0932701E093DE
:100A100026016DC0DE0120E030E0AE17BF0750F4C4
:100A200012964D915C9113979D014115510509F165
:100A3000DA01F3CFB383A28340815181840F951FE4
:100A40008A179B0771F48D919C911197840F951FC4
:100A500002969183808312968D919C911397938334
:100A600082832115310529F4F0932901E0932801AF
:100A70003EC0D9011396FC93EE9312974D915D9170
:100A8000A40FB51FEA17FB0779F480819181840FC9
:100A9000951F0296D90111969C938E938281938122
:100AA00013969C938E931297E0E0F0E08A819B81ED
:100AB000009719F0FE01EC01F9CFCE0102962881D2
:100AC0003981820F931F2091260130912701281729
:100AD000390769F4309729F41092290110922801FE
:100AE00002C013821282D0932701C0932601DF91A6
:100AF000CF910895F8940C948A05DC0101C06D93A0
:100B000041505040E0F70895EE0FFF1F0590F4911B
:100B1000E02D099410E0CAEBD0E004C0FE010E9471
:0E0B200086052296CC3BD107C9F7F894FFCF8B
:080B2E00F40100002A0180001F
:00000001FF
